{
  "contractName": "ProofOfExistence",
  "abi": [
    {
      "inputs": [
        {
          "internalType": "bytes32",
          "name": "proof",
          "type": "bytes32"
        }
      ],
      "name": "storeProof",
      "outputs": [],
      "stateMutability": "nonpayable",
      "type": "function"
    },
    {
      "inputs": [
        {
          "internalType": "string",
          "name": "document",
          "type": "string"
        }
      ],
      "name": "notarize",
      "outputs": [],
      "stateMutability": "nonpayable",
      "type": "function"
    },
    {
      "inputs": [
        {
          "internalType": "string",
          "name": "document",
          "type": "string"
        }
      ],
      "name": "hash",
      "outputs": [
        {
          "internalType": "bytes32",
          "name": "",
          "type": "bytes32"
        }
      ],
      "stateMutability": "pure",
      "type": "function",
      "constant": true
    },
    {
      "inputs": [
        {
          "internalType": "string",
          "name": "document",
          "type": "string"
        }
      ],
      "name": "checkDocument",
      "outputs": [
        {
          "internalType": "bool",
          "name": "",
          "type": "bool"
        }
      ],
      "stateMutability": "view",
      "type": "function",
      "constant": true
    }
  ],
  "bytecode": "0x608060405234801561001057600080fd5b5061041d806100206000396000f3fe608060405234801561001057600080fd5b506004361061004c5760003560e01c806353fb9233146100515780637183616c146101245780638952877b146101df578063b411ee941461020d575b600080fd5b61010a6004803603602081101561006757600080fd5b810190808035906020019064010000000081111561008457600080fd5b82018360208201111561009657600080fd5b803590602001918460018302840111640100000000831117156100b857600080fd5b91908080601f016020809104026020016040519081016040528093929190818152602001838380828437600081840152601f19601f8201169050808301925050505050505091929192905050506102dc565b604051808215151515815260200191505060405180910390f35b6101dd6004803603602081101561013a57600080fd5b810190808035906020019064010000000081111561015757600080fd5b82018360208201111561016957600080fd5b8035906020019184600183028401116401000000008311171561018b57600080fd5b91908080601f016020809104026020016040519081016040528093929190818152602001838380828437600081840152601f19601f8201169050808301925050505050505091929192905050506102fb565b005b61020b600480360360208110156101f557600080fd5b8101908080359060200190929190505050610315565b005b6102c66004803603602081101561022357600080fd5b810190808035906020019064010000000081111561024057600080fd5b82018360208201111561025257600080fd5b8035906020019184600183028401116401000000008311171561027457600080fd5b91908080601f016020809104026020016040519081016040528093929190818152602001838380828437600081840152601f19601f820116905080830192505050505050509192919290505050610343565b6040518082815260200191505060405180910390f35b6000806102e883610343565b90506102f3816103be565b915050919050565b600061030682610343565b905061031181610315565b5050565b600160008083815260200190815260200160002060006101000a81548160ff02191690831515021790555050565b6000816040516020018082805190602001908083835b6020831061037c5780518252602082019150602081019050602083039250610359565b6001836020036101000a038019825116818451168082178552505050505050905001915050604051602081830303815290604052805190602001209050919050565b600080600083815260200190815260200160002060009054906101000a900460ff16905091905056fea2646970667358221220d802e0e3e7f74745950e00b70a6890bdc1c18ac946cab1bdcad1202db3d638fa64736f6c63430006040033",
  "source": "pragma solidity ^0.6.4;\r\n\r\ncontract ProofOfExistence {\r\n\r\n    mapping(bytes32 => bool) private proofs;\r\n\r\n    function storeProof(bytes32 proof) public{\r\n        proofs[proof] = true;\r\n    }\r\n\r\n    function notarize(string memory document) public {\r\n        bytes32 hashedProof = hash(document);\r\n        storeProof(hashedProof);\r\n    }\r\n\r\n    function hash(string memory document) public pure returns (bytes32) {\r\n        return keccak256(abi.encodePacked(document));\r\n    }\r\n\r\n    function checkDocument(string memory document) public view returns(bool){\r\n        bytes32 hashedDocument = hash(document);\r\n        return hasProof(hashedDocument);\r\n    }\r\n\r\n    function hasProof(bytes32 hashedDoc) private view returns (bool){\r\n        return proofs[hashedDoc];\r\n    }\r\n}",
  "sourcePath": "C:\\Users\\u6064373\\OneDrive - Thomson Reuters Incorporated\\Desktop\\Fabric\\ERC20-token\\CustomERC20Token\\contracts\\ProofOfExistence.sol",
  "compiler": {
    "name": "solc",
    "version": "0.6.4+commit.1dca32f3.Emscripten.clang"
  },
  "schemaVersion": "3.1.0",
  "updatedAt": "2020-05-25T10:25:45.321Z",
  "networkType": "ethereum",
  "devdoc": {
    "methods": {}
  },
  "userdoc": {
    "methods": {}
  }
}